:0C0000000C9452000C9400000C94FD00C5
:10000C000C9400000C9408010C9400000C9400005B
:10001C000C9400000C9400000C9400000C94000054
:10002C000C9400000C9400000C9400000C94000044
:10003C000C9400000C9400000C9400000C94F20042
:10004C000C9400000C9400001027E80364000A00D4
:10005C000100001000011000010000000000000071
:10006C0025753A25753A25750025752B2D314300DC
:10007C0046554C4C000080C001002D4E414E0049AD
:10008C004E4600000600040066000200600182007B
:10009C000100670184000000F894EE27ECBBF1E04E
:1000AC00FBBFEBBFE5BF8DE0A2E0BB27ED938A95CC
:1000BC00E9F780E094E0A0E6ED930197E9F7E0E939
:1000CC00F0E085919591009761F0A591B59105901F
:1000DC001590BF01F00105900D920197E1F7FB011E
:1000EC00F0CFEFE5EDBFE4E0EEBFC0E6D1E00C945D
:1000FC007F00EBEFE7BBEFE0E8BBA09A939AA89ADE
:10010C00A0E182D17894E4B7E064E4BFE5B7EC6099
:10011C00E5BFEBB7E06AEBBFA8EEB3E0A7D384D0A2
:10012C00E0E8E6B994D06E2EE8D0AFD0E4E0EA93E4
:10013C00A0E025D1ECE6F0E0FA93EA93E72DFF2757
:10014C00662777278ED3E42DFF276627772789D359
:10015C00E52DFF276627772784D38CE007D32E96CF
:10016C00A52DBB27E5E0F0E066D3309711F46FD0F6
:10017C006E2EE0E0EA93A1E002D1E5E7F0E0FA931D
:10018C00EA93E62DFF27662777276BD384E0EED220
:10019C002696ECE0EA93A1E0F2D0E9E19E1648F055
:1001AC00ECE7F0E0FA93EA9380E0E0D22296A8988C
:1001BC000DC0E2E7F0E0FA93EA93E92DFF276627FA
:1001CC0077274FD384E0D2D22696A89AA4E6B0E043
:1001DC004DD3E9D0A9CFFFCFEA93EFB7EA93E0E094
:1001EC00E91508F49A94E991EFBFE9911895EA930F
:1001FC00EFB7EA93E9E19E1608F49394E991EFBF07
:10020C00E9911895EA93EFB7EA935394EBE3E5156C
:10021C0010F455244394EBE3E41510F44424739444
:10022C00E991EFBFE9911895E9B7EF73E9BFE8E001
:10023C00E2BDE0E0E4BDE5E0E5BDE2B5E570E9F77F
:10024C00E8B7E06CE8BFE9B7E064E9BF08951A933A
:10025C0010E0E7B1E366E7B9E6B1E564E6B9349BD3
:10026C00FECF349AE5B1E03018F0E5B1EA3108F090
:10027C0004C0E5B1EE0F1E2F06C0E5B1EA3110F057
:10028C0012E301C010E0E12FF4C0E0E06E1618F0AC
:10029C00EAE06E1608F004C0C49AC59AC698C798CE
:1002AC00EAE06E1618F0E4E16E1608F004C0C49A89
:1002BC00C598C698C798E4E16E1618F0EEE16E1674
:1002CC0008F004C0C498C598C698C798EEE16E169D
:1002DC0018F0E8E26E1608F004C0C498C598C69AE7
:1002EC00C798E8E26E1618F0E2E3E61508F404C0CD
:1002FC00C498C598C69AC79A0895E0E0E91518F411
:10030C00EAE0E91508F403C0C39AC19AC098EAE080
:10031C00E91518F4E4E19E1608F003C0C39AC198DD
:10032C00C098E4E19E1618F0C398C198C098992023
:10033C0019F4C39AC19AC09A08951A931A2FE2B36A
:10034C00EF70AE2FE12FE07FEA2BE2BB87E08A95BE
:10035C00F1F7929A87E08A95F1F7929887E08A955F
:10036C00F1F787C0AA93A881E8DFE881E295E883DA
:10037C00A881E3DF83E48A95F1F7219608951A9317
:10038C000A931A2F0A81E12FF0E0E05AFE4FE08128
:10039C00E00FAE2FE7DF0093640110936501198124
:1003AC00088123960895A2E0DDDFA3E0B0E05ED2E1
:1003BC00ACE0D8DFA1E0D6DFA3E0B0E057D2E0E0BC
:1003CC00E0936501E093640108951A931A2F1A3093
:1003DC0031F0E0916601A0916401AE1758F0E0E0B5
:1003EC00EA93A0916501AF5FA0936501C8DF1A3055
:1003FC0009F43FC0E0916401EF5FE0936401909ACF
:10040C00A12FB0DF909835C01A931A2FE1B3E06F8B
:10041C00E1BB8A9A889A899A9298909891981093AD
:10042C006601E12FE058E0936201E12FE054E09384
:10043C006301A4E1B0E01AD2A0E37FDF85E88A95DE
:10044C00F1F7A0E37ADF85E88A95F1F7A0E375DF91
:10045C0085E88A95F1F7A0E270DF85E88A95F1F7D7
:10046C00A8E280DFA4E07EDFA5E87CDFA6E07ADFEF
:10047C009ADF19910895BA93AA932697B3D110E0F5
:10048C00AC85BD85E0E0F0E0ED93FC93EA89FB8957
:10049C003196EA8BFB8B3197E4912E2FE03009F4E7
:1004AC0050C1E12FE03059F4253211F411E006C0AF
:1004BC002A93AD85BE85EF85F889099541C1E13058
:1004CC00C9F4253239F42A93AD85BE85EF85F889B8
:1004DC00099535C112E040E000E02D3211F401E045
:1004EC002FC12B3211F44BE22BC1203211F440E21C
:1004FC0027C102C0E23039F450E013E0203311F48C
:10050C0000681EC103C0E33009F01AC1203310F09B
:10051C002A3308F007C0AAE05A9F502DE22FE0536F
:10052C005E0F0EC1E22FE33669F4E889F98934973E
:10053C00E88BF98BA481AA93AD85BE85EF85F889EC
:10054C000995FDC0E33789F4E889F9893497E88B7C
:10055C00F98BA889B9891496ED91FD91EE83FF83EF
:10056C00AE81BF8126D11E2F13C0E037A9F4E889D4
:10057C00F9893497E88BF98BA889B9891496ED9190
:10058C00FD91EE83FF83AE81BF811FD11E2F0860CA
:10059C0002600F7730E040C0E43611F0E93611F418
:1005AC00046002C0E53731F4E4E5F0E0EE83FF834C
:1005BC0015E00CC0E83511F4086003C0E83709F009
:1005CC00BEC0EEE5F0E0EE83FF8314E002FF19C03D
:1005DC00E889F9893497E88BF98BA889B98914963D
:1005EC00ED91FD91EA87FB87AB85AA2322F40CD110
:1005FC00EA87FB874DE2403011F01F5F01C00B7F93
:10060C000BC0E889F9893497E88BF98BA889B989EB
:10061C0014961FD1EA87FB8700FD15C0151798F4B7
:10062C0007FF08C002FF04C00B7F242F115001C02C
:10063C0020E301C020E22A93AD85BE85EF85F889C1
:10064C0009955150EBCF312F01FF1BC03030C1F059
:10065C0003FF06C0EE81FF812591EE83FF8305C069
:10066C00AE81BF812D91AE83BF832A93AD85BE85AC
:10067C00EF85F8890995503009F051503150E6CF8B
:10068C0051C020E3EE81FF81E8D0E887F987EE8145
:10069C00FF813296EE83FF83E885F985AA85BB85B9
:1006AC00AE17BF0750F02F5FA885B985EA85FB858B
:1006BC00EA1BFB0BEA87FB87EFCF2A3328F003FFFB
:1006CC0002C0295F01C0295D04FD1DC0213320F447
:1006DC00A885B985119709F409C0531710F000FFCC
:1006EC0001C01AC020E207FF0EC020E3006102FF28
:1006FC000AC00B7F4A93AD85BE85EF85F8890995B5
:10070C00503009F051502A93AD85BE85EF85F8899C
:10071C000995503009F051503150A885B985129780
:10072C0008F0AFCF00FF0BC0503049F05150E0E261
:10073C00EA93AD85BE85EF85F8890995F5CF10E074
:10074C00A5CEAC85BD85ED91FD9153D064960895F1
:10075C004BD08D013C81A32F38DED801ED91FD915A
:10076C003196FE93EE9347D025960895FF92F82E7E
:10077C0026971A930A93DE01149642D08D01E0E07D
:10078C00EC83ED83EE83EF83DE01189639D0ED9187
:10079C00FD91FA93EA931A930A93EEEAF3E0FA9333
:1007AC00EA93DE01189667DE198108812896FF907E
:1007BC000895BA93AA93A991B991EE27FF276D9149
:1007CC00662311F03196FBCF0895BA93AA93AA270A
:1007DC00BB27E991F9910590002011F01196FBCF00
:1007EC00FD0108955A934A933A932A931A930A93C4
:1007FC0008955D814C813B812A811981088108957E
:10080C000024AF0DB01D0895F195E195F0400895C9
:10081C000024112490E1AA0FBB1F001C111C0E1AFE
:10082C001F0A18F40E0E1F1E01C0A1609A9599F7AD
:10083C00FD01D0010895E894B7FF04C0B195A195CE
:10084C00B0406894F7FDE0DFE3DFFD010EF4DCDF80
:10085C000895ED91FC91119708950590F491E02D78
:10086C0008957A936A93FA93EA930895109639F05F
:10087C00A89588EE93E00197F1F71197C9F70895C1
:00000001FF
